{
  "contractName": "DStorage",
  "abi": [
    {
      "inputs": [],
      "stateMutability": "nonpayable",
      "type": "constructor"
    },
    {
      "anonymous": false,
      "inputs": [
        {
          "indexed": false,
          "internalType": "uint256",
          "name": "field",
          "type": "uint256"
        },
        {
          "indexed": false,
          "internalType": "string",
          "name": "fileHash",
          "type": "string"
        },
        {
          "indexed": false,
          "internalType": "uint256",
          "name": "fileSize",
          "type": "uint256"
        },
        {
          "indexed": false,
          "internalType": "string",
          "name": "fileType",
          "type": "string"
        },
        {
          "indexed": false,
          "internalType": "string",
          "name": "fileName",
          "type": "string"
        },
        {
          "indexed": false,
          "internalType": "string",
          "name": "fileDescription",
          "type": "string"
        },
        {
          "indexed": false,
          "internalType": "uint256",
          "name": "uploadTime",
          "type": "uint256"
        },
        {
          "indexed": false,
          "internalType": "address payable",
          "name": "uploader",
          "type": "address"
        }
      ],
      "name": "FileUploaded",
      "type": "event"
    },
    {
      "inputs": [
        {
          "internalType": "address",
          "name": "",
          "type": "address"
        }
      ],
      "name": "Users",
      "outputs": [
        {
          "internalType": "string",
          "name": "",
          "type": "string"
        }
      ],
      "stateMutability": "view",
      "type": "function"
    },
    {
      "inputs": [],
      "name": "fileCount",
      "outputs": [
        {
          "internalType": "uint256",
          "name": "",
          "type": "uint256"
        }
      ],
      "stateMutability": "view",
      "type": "function"
    },
    {
      "inputs": [
        {
          "internalType": "uint256",
          "name": "",
          "type": "uint256"
        }
      ],
      "name": "files",
      "outputs": [
        {
          "internalType": "uint256",
          "name": "field",
          "type": "uint256"
        },
        {
          "internalType": "string",
          "name": "fileHash",
          "type": "string"
        },
        {
          "internalType": "uint256",
          "name": "fileSize",
          "type": "uint256"
        },
        {
          "internalType": "string",
          "name": "fileType",
          "type": "string"
        },
        {
          "internalType": "string",
          "name": "fileName",
          "type": "string"
        },
        {
          "internalType": "string",
          "name": "fileDescription",
          "type": "string"
        },
        {
          "internalType": "uint256",
          "name": "uploadTime",
          "type": "uint256"
        },
        {
          "internalType": "address payable",
          "name": "uploader",
          "type": "address"
        }
      ],
      "stateMutability": "view",
      "type": "function"
    },
    {
      "inputs": [],
      "name": "name",
      "outputs": [
        {
          "internalType": "string",
          "name": "",
          "type": "string"
        }
      ],
      "stateMutability": "view",
      "type": "function"
    },
    {
      "inputs": [],
      "name": "userName",
      "outputs": [
        {
          "internalType": "string",
          "name": "",
          "type": "string"
        }
      ],
      "stateMutability": "view",
      "type": "function"
    },
    {
      "inputs": [
        {
          "internalType": "string",
          "name": "_userName",
          "type": "string"
        }
      ],
      "name": "setUserName",
      "outputs": [],
      "stateMutability": "nonpayable",
      "type": "function"
    },
    {
      "inputs": [
        {
          "internalType": "string",
          "name": "_fileHash",
          "type": "string"
        },
        {
          "internalType": "uint256",
          "name": "_fileSize",
          "type": "uint256"
        },
        {
          "internalType": "string",
          "name": "_fileType",
          "type": "string"
        },
        {
          "internalType": "string",
          "name": "_fileName",
          "type": "string"
        },
        {
          "internalType": "string",
          "name": "_fileDescription",
          "type": "string"
        }
      ],
      "name": "uploadFile",
      "outputs": [],
      "stateMutability": "nonpayable",
      "type": "function"
    }
  ],
  "bytecode": "0x60806040526040518060400160405280600881526020017f4453746f7261676500000000000000000000000000000000000000000000000081525060009080519060200190620000519291906200006b565b5060006003553480156200006457600080fd5b506200017f565b82805462000079906200014a565b90600052602060002090601f0160209004810192826200009d5760008555620000e9565b82601f10620000b857805160ff1916838001178555620000e9565b82800160010185558215620000e9579182015b82811115620000e8578251825591602001919060010190620000cb565b5b509050620000f89190620000fc565b5090565b5b8082111562000117576000816000905550600101620000fd565b5090565b7f4e487b7100000000000000000000000000000000000000000000000000000000600052602260045260246000fd5b600060028204905060018216806200016357607f821691505b6020821081036200017957620001786200011b565b5b50919050565b610f8f806200018f6000396000f3fe608060405234801561001057600080fd5b506004361061007d5760003560e01c806370019b351161005b57806370019b35146100da57806399b956a0146100f8578063e82d9d3314610128578063f4c714b4146101445761007d565b806306fdde03146100825780632b5914fe146100a057806343953519146100bc575b600080fd5b61008a61017b565b6040516100979190610a10565b60405180910390f35b6100ba60048036038101906100b59190610b7b565b610209565b005b6100c46102f1565b6040516100d19190610bdd565b60405180910390f35b6100e26102f7565b6040516100ef9190610a10565b60405180910390f35b610112600480360381019061010d9190610c56565b610385565b60405161011f9190610a10565b60405180910390f35b610142600480360381019061013d9190610caf565b610425565b005b61015e60048036038101906101599190610d9a565b61064c565b604051610172989796959493929190610de8565b60405180910390f35b6000805461018890610eb1565b80601f01602080910402602001604051908101604052809291908181526020018280546101b490610eb1565b80156102015780601f106101d657610100808354040283529160200191610201565b820191906000526020600020905b8154815290600101906020018083116101e457829003601f168201915b505050505081565b600073ffffffffffffffffffffffffffffffffffffffff163373ffffffffffffffffffffffffffffffffffffffff160361024257600080fd5b6000600260003373ffffffffffffffffffffffffffffffffffffffff1673ffffffffffffffffffffffffffffffffffffffff168152602001908152602001600020805461028e90610eb1565b90501461029a57600080fd5b80600260003373ffffffffffffffffffffffffffffffffffffffff1673ffffffffffffffffffffffffffffffffffffffff16815260200190815260200160002090805190602001906102ed9291906108d4565b5050565b60035481565b6001805461030490610eb1565b80601f016020809104026020016040519081016040528092919081815260200182805461033090610eb1565b801561037d5780601f106103525761010080835404028352916020019161037d565b820191906000526020600020905b81548152906001019060200180831161036057829003601f168201915b505050505081565b600260205280600052604060002060009150905080546103a490610eb1565b80601f01602080910402602001604051908101604052809291908181526020018280546103d090610eb1565b801561041d5780601f106103f25761010080835404028352916020019161041d565b820191906000526020600020905b81548152906001019060200180831161040057829003601f168201915b505050505081565b600085511161043357600080fd5b600083511161044157600080fd5b600081511161044f57600080fd5b600082511161045d57600080fd5b600073ffffffffffffffffffffffffffffffffffffffff163373ffffffffffffffffffffffffffffffffffffffff160361049657600080fd5b600084116104a357600080fd5b600360008154809291906104b690610f11565b919050555060405180610100016040528060035481526020018681526020018581526020018481526020018381526020018281526020014281526020013373ffffffffffffffffffffffffffffffffffffffff168152506004600060035481526020019081526020016000206000820151816000015560208201518160010190805190602001906105489291906108d4565b5060408201518160020155606082015181600301908051906020019061056f9291906108d4565b50608082015181600401908051906020019061058c9291906108d4565b5060a08201518160050190805190602001906105a99291906108d4565b5060c0820151816006015560e08201518160070160006101000a81548173ffffffffffffffffffffffffffffffffffffffff021916908373ffffffffffffffffffffffffffffffffffffffff1602179055509050507f6e95bbaa37a5fdec42a312e049dea2fe6160ebe659214d3409b4f91f164c2f526003548686868686423360405161063d989796959493929190610de8565b60405180910390a15050505050565b600460205280600052604060002060009150905080600001549080600101805461067590610eb1565b80601f01602080910402602001604051908101604052809291908181526020018280546106a190610eb1565b80156106ee5780601f106106c3576101008083540402835291602001916106ee565b820191906000526020600020905b8154815290600101906020018083116106d157829003601f168201915b50505050509080600201549080600301805461070990610eb1565b80601f016020809104026020016040519081016040528092919081815260200182805461073590610eb1565b80156107825780601f1061075757610100808354040283529160200191610782565b820191906000526020600020905b81548152906001019060200180831161076557829003601f168201915b50505050509080600401805461079790610eb1565b80601f01602080910402602001604051908101604052809291908181526020018280546107c390610eb1565b80156108105780601f106107e557610100808354040283529160200191610810565b820191906000526020600020905b8154815290600101906020018083116107f357829003601f168201915b50505050509080600501805461082590610eb1565b80601f016020809104026020016040519081016040528092919081815260200182805461085190610eb1565b801561089e5780601f106108735761010080835404028352916020019161089e565b820191906000526020600020905b81548152906001019060200180831161088157829003601f168201915b5050505050908060060154908060070160009054906101000a900473ffffffffffffffffffffffffffffffffffffffff16905088565b8280546108e090610eb1565b90600052602060002090601f0160209004810192826109025760008555610949565b82601f1061091b57805160ff1916838001178555610949565b82800160010185558215610949579182015b8281111561094857825182559160200191906001019061092d565b5b509050610956919061095a565b5090565b5b8082111561097357600081600090555060010161095b565b5090565b600081519050919050565b600082825260208201905092915050565b60005b838110156109b1578082015181840152602081019050610996565b838111156109c0576000848401525b50505050565b6000601f19601f8301169050919050565b60006109e282610977565b6109ec8185610982565b93506109fc818560208601610993565b610a05816109c6565b840191505092915050565b60006020820190508181036000830152610a2a81846109d7565b905092915050565b6000604051905090565b600080fd5b600080fd5b600080fd5b600080fd5b7f4e487b7100000000000000000000000000000000000000000000000000000000600052604160045260246000fd5b610a88826109c6565b810181811067ffffffffffffffff82111715610aa757610aa6610a50565b5b80604052505050565b6000610aba610a32565b9050610ac68282610a7f565b919050565b600067ffffffffffffffff821115610ae657610ae5610a50565b5b610aef826109c6565b9050602081019050919050565b82818337600083830152505050565b6000610b1e610b1984610acb565b610ab0565b905082815260208101848484011115610b3a57610b39610a4b565b5b610b45848285610afc565b509392505050565b600082601f830112610b6257610b61610a46565b5b8135610b72848260208601610b0b565b91505092915050565b600060208284031215610b9157610b90610a3c565b5b600082013567ffffffffffffffff811115610baf57610bae610a41565b5b610bbb84828501610b4d565b91505092915050565b6000819050919050565b610bd781610bc4565b82525050565b6000602082019050610bf26000830184610bce565b92915050565b600073ffffffffffffffffffffffffffffffffffffffff82169050919050565b6000610c2382610bf8565b9050919050565b610c3381610c18565b8114610c3e57600080fd5b50565b600081359050610c5081610c2a565b92915050565b600060208284031215610c6c57610c6b610a3c565b5b6000610c7a84828501610c41565b91505092915050565b610c8c81610bc4565b8114610c9757600080fd5b50565b600081359050610ca981610c83565b92915050565b600080600080600060a08688031215610ccb57610cca610a3c565b5b600086013567ffffffffffffffff811115610ce957610ce8610a41565b5b610cf588828901610b4d565b9550506020610d0688828901610c9a565b945050604086013567ffffffffffffffff811115610d2757610d26610a41565b5b610d3388828901610b4d565b935050606086013567ffffffffffffffff811115610d5457610d53610a41565b5b610d6088828901610b4d565b925050608086013567ffffffffffffffff811115610d8157610d80610a41565b5b610d8d88828901610b4d565b9150509295509295909350565b600060208284031215610db057610daf610a3c565b5b6000610dbe84828501610c9a565b91505092915050565b6000610dd282610bf8565b9050919050565b610de281610dc7565b82525050565b600061010082019050610dfe600083018b610bce565b8181036020830152610e10818a6109d7565b9050610e1f6040830189610bce565b8181036060830152610e3181886109d7565b90508181036080830152610e4581876109d7565b905081810360a0830152610e5981866109d7565b9050610e6860c0830185610bce565b610e7560e0830184610dd9565b9998505050505050505050565b7f4e487b7100000000000000000000000000000000000000000000000000000000600052602260045260246000fd5b60006002820490506001821680610ec957607f821691505b602082108103610edc57610edb610e82565b5b50919050565b7f4e487b7100000000000000000000000000000000000000000000000000000000600052601160045260246000fd5b6000610f1c82610bc4565b91507fffffffffffffffffffffffffffffffffffffffffffffffffffffffffffffffff8203610f4e57610f4d610ee2565b5b60018201905091905056fea2646970667358221220177dc27e10a79225a2eb97e7e1638e34a9b22808f8996b4f64e95414c1ab2d4764736f6c634300080d0033",
  "immutableReferences": {},
  "source": "// SPDX-License-Identifier: GPL-3.0\r\npragma solidity ^0.8.4;\r\n\r\ncontract DStorage {\r\n  string public name = \"DStorage\";// Name\r\n  string public userName;\r\n  mapping(address =>string) public Users;\r\n  // Number of files\r\n  uint public fileCount=0; \r\n  mapping(uint=>File) public files;// Mapping fileId=>Struct \r\n\r\n  // Struct\r\n   struct File{\r\n     uint field;\r\n     string fileHash;\r\n     uint fileSize;\r\n     string fileType;\r\n     string fileName;\r\n     string fileDescription;\r\n     uint uploadTime;\r\n     address payable uploader; \r\n   }\r\n\r\n  // Event\r\n  event FileUploaded(\r\n     uint field,\r\n     string fileHash,\r\n     uint fileSize,\r\n     string fileType,\r\n     string fileName,\r\n     string fileDescription,\r\n     uint uploadTime,\r\n     address payable uploader \r\n  );\r\n  constructor()  {\r\n\r\n  }\r\n  function setUserName(string memory _userName) public {\r\n    \r\n    require(msg.sender!=address(0)); \r\n    \r\n    require(bytes(Users[msg.sender]).length==0);\r\n    \r\n    Users[msg.sender]=_userName;\r\n  }\r\n  \r\n\r\n// Upload File function\r\n  function uploadFile(string memory _fileHash, uint _fileSize, string memory _fileType, string memory _fileName, string memory _fileDescription) public {\r\n\r\n\r\n    require((bytes(_fileHash).length>0)); // Make sure the file hash exists\r\n\r\n    require((bytes(_fileType).length>0)); // Make sure file type exists\r\n    \r\n    require((bytes(_fileDescription).length>0)); // Make sure file description exists\r\n   \r\n    require((bytes(_fileName).length>0));  // Make sure file fileName exists\r\n    \r\n    require(msg.sender!=address(0)); // Make sure uploader address exists\r\n    \r\n    require(_fileSize>0); // Make sure file size is more than 0\r\n\r\n    fileCount++; // Increment file id\r\n\r\n    files[fileCount]=File(fileCount,_fileHash,_fileSize,_fileType,_fileName,_fileDescription, block.timestamp ,payable(msg.sender));  // Add File to the contract\r\n\r\n    emit FileUploaded(fileCount,_fileHash,_fileSize,_fileType,_fileName,_fileDescription, block.timestamp ,payable(msg.sender)); // Trigger an event\r\n  }\r\n\r\n}",
  "sourcePath": "C:\\Users\\Varun Koranne\\Desktop\\Mini\\SafeNSecure\\src\\contracts\\DStorage.sol",
  "compiler": {
    "name": "solc",
    "version": "0.8.13+commit.abaa5c0e.Emscripten.clang"
  },
  "schemaVersion": "3.4.4",
  "updatedAt": "2022-04-16T12:09:16.737Z",
  "devdoc": {
    "kind": "dev",
    "methods": {},
    "version": 1
  },
  "userdoc": {
    "kind": "user",
    "methods": {},
    "version": 1
  }
}