{
  "contractName": "DStorage",
  "abi": [
    {
      "inputs": [],
      "stateMutability": "nonpayable",
      "type": "constructor"
    },
    {
      "anonymous": false,
      "inputs": [
        {
          "indexed": false,
          "internalType": "address payable",
          "name": "receiver",
          "type": "address"
        },
        {
          "indexed": false,
          "internalType": "address payable",
          "name": "sender",
          "type": "address"
        }
      ],
      "name": "FileShared",
      "type": "event"
    },
    {
      "anonymous": false,
      "inputs": [
        {
          "indexed": false,
          "internalType": "uint256",
          "name": "field",
          "type": "uint256"
        },
        {
          "indexed": false,
          "internalType": "string",
          "name": "fileHash",
          "type": "string"
        },
        {
          "indexed": false,
          "internalType": "uint256",
          "name": "fileSize",
          "type": "uint256"
        },
        {
          "indexed": false,
          "internalType": "string",
          "name": "fileType",
          "type": "string"
        },
        {
          "indexed": false,
          "internalType": "string",
          "name": "fileName",
          "type": "string"
        },
        {
          "indexed": false,
          "internalType": "string",
          "name": "fileDescription",
          "type": "string"
        },
        {
          "indexed": false,
          "internalType": "uint256",
          "name": "uploadTime",
          "type": "uint256"
        },
        {
          "indexed": false,
          "internalType": "address payable",
          "name": "uploader",
          "type": "address"
        }
      ],
      "name": "FileUploaded",
      "type": "event"
    },
    {
      "anonymous": false,
      "inputs": [
        {
          "indexed": false,
          "internalType": "string",
          "name": "userName",
          "type": "string"
        },
        {
          "indexed": false,
          "internalType": "address payable",
          "name": "owner",
          "type": "address"
        }
      ],
      "name": "UserAdded",
      "type": "event"
    },
    {
      "inputs": [
        {
          "internalType": "uint256",
          "name": "",
          "type": "uint256"
        }
      ],
      "name": "UserList",
      "outputs": [
        {
          "internalType": "string",
          "name": "userName",
          "type": "string"
        },
        {
          "internalType": "address payable",
          "name": "owner",
          "type": "address"
        }
      ],
      "stateMutability": "view",
      "type": "function",
      "constant": true
    },
    {
      "inputs": [],
      "name": "fileCount",
      "outputs": [
        {
          "internalType": "uint256",
          "name": "",
          "type": "uint256"
        }
      ],
      "stateMutability": "view",
      "type": "function",
      "constant": true
    },
    {
      "inputs": [
        {
          "internalType": "uint256",
          "name": "",
          "type": "uint256"
        }
      ],
      "name": "files",
      "outputs": [
        {
          "internalType": "uint256",
          "name": "field",
          "type": "uint256"
        },
        {
          "internalType": "string",
          "name": "fileHash",
          "type": "string"
        },
        {
          "internalType": "uint256",
          "name": "fileSize",
          "type": "uint256"
        },
        {
          "internalType": "string",
          "name": "fileType",
          "type": "string"
        },
        {
          "internalType": "string",
          "name": "fileName",
          "type": "string"
        },
        {
          "internalType": "string",
          "name": "fileDescription",
          "type": "string"
        },
        {
          "internalType": "uint256",
          "name": "uploadTime",
          "type": "uint256"
        },
        {
          "internalType": "address payable",
          "name": "uploader",
          "type": "address"
        }
      ],
      "stateMutability": "view",
      "type": "function",
      "constant": true
    },
    {
      "inputs": [],
      "name": "name",
      "outputs": [
        {
          "internalType": "string",
          "name": "",
          "type": "string"
        }
      ],
      "stateMutability": "view",
      "type": "function",
      "constant": true
    },
    {
      "inputs": [],
      "name": "userCount",
      "outputs": [
        {
          "internalType": "uint256",
          "name": "",
          "type": "uint256"
        }
      ],
      "stateMutability": "view",
      "type": "function",
      "constant": true
    },
    {
      "inputs": [
        {
          "internalType": "string",
          "name": "_userName",
          "type": "string"
        }
      ],
      "name": "addUser",
      "outputs": [],
      "stateMutability": "nonpayable",
      "type": "function"
    },
    {
      "inputs": [
        {
          "internalType": "address payable",
          "name": "receiver",
          "type": "address"
        },
        {
          "internalType": "string",
          "name": "_fileHash",
          "type": "string"
        },
        {
          "internalType": "uint256",
          "name": "_fileSize",
          "type": "uint256"
        },
        {
          "internalType": "string",
          "name": "_fileType",
          "type": "string"
        },
        {
          "internalType": "string",
          "name": "_fileName",
          "type": "string"
        },
        {
          "internalType": "string",
          "name": "_fileDescription",
          "type": "string"
        }
      ],
      "name": "shareFile",
      "outputs": [],
      "stateMutability": "nonpayable",
      "type": "function"
    },
    {
      "inputs": [
        {
          "internalType": "string",
          "name": "_fileHash",
          "type": "string"
        },
        {
          "internalType": "uint256",
          "name": "_fileSize",
          "type": "uint256"
        },
        {
          "internalType": "string",
          "name": "_fileType",
          "type": "string"
        },
        {
          "internalType": "string",
          "name": "_fileName",
          "type": "string"
        },
        {
          "internalType": "string",
          "name": "_fileDescription",
          "type": "string"
        }
      ],
      "name": "uploadFile",
      "outputs": [],
      "stateMutability": "nonpayable",
      "type": "function"
    }
  ],
  "bytecode": "0x60806040526040518060400160405280600881526020017f4453746f72616765000000000000000000000000000000000000000000000000815250600090805190602001906200005192919062000070565b50600060015560006004553480156200006957600080fd5b5062000184565b8280546200007e906200014f565b90600052602060002090601f016020900481019282620000a25760008555620000ee565b82601f10620000bd57805160ff1916838001178555620000ee565b82800160010185558215620000ee579182015b82811115620000ed578251825591602001919060010190620000d0565b5b509050620000fd919062000101565b5090565b5b808211156200011c57600081600090555060010162000102565b5090565b7f4e487b7100000000000000000000000000000000000000000000000000000000600052602260045260246000fd5b600060028204905060018216806200016857607f821691505b6020821081036200017e576200017d62000120565b5b50919050565b6112be80620001946000396000f3fe608060405234801561001057600080fd5b50600436106100885760003560e01c806347635c571161005b57806347635c5714610103578063babe16551461011f578063e82d9d3314610150578063f4c714b41461016c57610088565b806306fdde031461008d57806307973ccf146100ab57806318b8275a146100c957806343953519146100e5575b600080fd5b6100956101a3565b6040516100a29190610c51565b60405180910390f35b6100b3610231565b6040516100c09190610c8c565b60405180910390f35b6100e360048036038101906100de9190610df0565b610237565b005b6100ed610379565b6040516100fa9190610c8c565b60405180910390f35b61011d60048036038101906101189190610ec3565b61037f565b005b61013960048036038101906101349190610fc0565b61059a565b604051610147929190610ffc565b60405180910390f35b61016a6004803603810190610165919061102c565b610666565b005b61018660048036038101906101819190610fc0565b61088d565b60405161019a989796959493929190611117565b60405180910390f35b600080546101b0906111e0565b80601f01602080910402602001604051908101604052809291908181526020018280546101dc906111e0565b80156102295780601f106101fe57610100808354040283529160200191610229565b820191906000526020600020905b81548152906001019060200180831161020c57829003601f168201915b505050505081565b60015481565b600073ffffffffffffffffffffffffffffffffffffffff163373ffffffffffffffffffffffffffffffffffffffff160361027057600080fd5b600081511161027e57600080fd5b6001600081548092919061029190611240565b919050555060405180604001604052808281526020013373ffffffffffffffffffffffffffffffffffffffff1681525060026000600154815260200190815260200160002060008201518160000190805190602001906102f2929190610b15565b5060208201518160010160006101000a81548173ffffffffffffffffffffffffffffffffffffffff021916908373ffffffffffffffffffffffffffffffffffffffff1602179055509050507fa9f30653d8449c84b5b92a43e719ff26da48571661b3093c672cec7f62df6361813360405161036e929190610ffc565b60405180910390a150565b60045481565b600085511161038d57600080fd5b600083511161039b57600080fd5b60008151116103a957600080fd5b60008251116103b757600080fd5b600073ffffffffffffffffffffffffffffffffffffffff163373ffffffffffffffffffffffffffffffffffffffff16036103f057600080fd5b600084116103fd57600080fd5b600360008773ffffffffffffffffffffffffffffffffffffffff1673ffffffffffffffffffffffffffffffffffffffff16815260200190815260200160002060405180610100016040528060045481526020018781526020018681526020018581526020018481526020018381526020014281526020013373ffffffffffffffffffffffffffffffffffffffff1681525090806001815401808255809150506001900390600052602060002090600802016000909190919091506000820151816000015560208201518160010190805190602001906104dd929190610b15565b50604082015181600201556060820151816003019080519060200190610504929190610b15565b506080820151816004019080519060200190610521929190610b15565b5060a082015181600501908051906020019061053e929190610b15565b5060c0820151816006015560e08201518160070160006101000a81548173ffffffffffffffffffffffffffffffffffffffff021916908373ffffffffffffffffffffffffffffffffffffffff1602179055505050505050505050565b60026020528060005260406000206000915090508060000180546105bd906111e0565b80601f01602080910402602001604051908101604052809291908181526020018280546105e9906111e0565b80156106365780601f1061060b57610100808354040283529160200191610636565b820191906000526020600020905b81548152906001019060200180831161061957829003601f168201915b5050505050908060010160009054906101000a900473ffffffffffffffffffffffffffffffffffffffff16905082565b600085511161067457600080fd5b600083511161068257600080fd5b600081511161069057600080fd5b600082511161069e57600080fd5b600073ffffffffffffffffffffffffffffffffffffffff163373ffffffffffffffffffffffffffffffffffffffff16036106d757600080fd5b600084116106e457600080fd5b600460008154809291906106f790611240565b919050555060405180610100016040528060045481526020018681526020018581526020018481526020018381526020018281526020014281526020013373ffffffffffffffffffffffffffffffffffffffff16815250600560006004548152602001908152602001600020600082015181600001556020820151816001019080519060200190610789929190610b15565b506040820151816002015560608201518160030190805190602001906107b0929190610b15565b5060808201518160040190805190602001906107cd929190610b15565b5060a08201518160050190805190602001906107ea929190610b15565b5060c0820151816006015560e08201518160070160006101000a81548173ffffffffffffffffffffffffffffffffffffffff021916908373ffffffffffffffffffffffffffffffffffffffff1602179055509050507f6e95bbaa37a5fdec42a312e049dea2fe6160ebe659214d3409b4f91f164c2f526004548686868686423360405161087e989796959493929190611117565b60405180910390a15050505050565b60056020528060005260406000206000915090508060000154908060010180546108b6906111e0565b80601f01602080910402602001604051908101604052809291908181526020018280546108e2906111e0565b801561092f5780601f106109045761010080835404028352916020019161092f565b820191906000526020600020905b81548152906001019060200180831161091257829003601f168201915b50505050509080600201549080600301805461094a906111e0565b80601f0160208091040260200160405190810160405280929190818152602001828054610976906111e0565b80156109c35780601f10610998576101008083540402835291602001916109c3565b820191906000526020600020905b8154815290600101906020018083116109a657829003601f168201915b5050505050908060040180546109d8906111e0565b80601f0160208091040260200160405190810160405280929190818152602001828054610a04906111e0565b8015610a515780601f10610a2657610100808354040283529160200191610a51565b820191906000526020600020905b815481529060010190602001808311610a3457829003601f168201915b505050505090806005018054610a66906111e0565b80601f0160208091040260200160405190810160405280929190818152602001828054610a92906111e0565b8015610adf5780601f10610ab457610100808354040283529160200191610adf565b820191906000526020600020905b815481529060010190602001808311610ac257829003601f168201915b5050505050908060060154908060070160009054906101000a900473ffffffffffffffffffffffffffffffffffffffff16905088565b828054610b21906111e0565b90600052602060002090601f016020900481019282610b435760008555610b8a565b82601f10610b5c57805160ff1916838001178555610b8a565b82800160010185558215610b8a579182015b82811115610b89578251825591602001919060010190610b6e565b5b509050610b979190610b9b565b5090565b5b80821115610bb4576000816000905550600101610b9c565b5090565b600081519050919050565b600082825260208201905092915050565b60005b83811015610bf2578082015181840152602081019050610bd7565b83811115610c01576000848401525b50505050565b6000601f19601f8301169050919050565b6000610c2382610bb8565b610c2d8185610bc3565b9350610c3d818560208601610bd4565b610c4681610c07565b840191505092915050565b60006020820190508181036000830152610c6b8184610c18565b905092915050565b6000819050919050565b610c8681610c73565b82525050565b6000602082019050610ca16000830184610c7d565b92915050565b6000604051905090565b600080fd5b600080fd5b600080fd5b600080fd5b7f4e487b7100000000000000000000000000000000000000000000000000000000600052604160045260246000fd5b610cfd82610c07565b810181811067ffffffffffffffff82111715610d1c57610d1b610cc5565b5b80604052505050565b6000610d2f610ca7565b9050610d3b8282610cf4565b919050565b600067ffffffffffffffff821115610d5b57610d5a610cc5565b5b610d6482610c07565b9050602081019050919050565b82818337600083830152505050565b6000610d93610d8e84610d40565b610d25565b905082815260208101848484011115610daf57610dae610cc0565b5b610dba848285610d71565b509392505050565b600082601f830112610dd757610dd6610cbb565b5b8135610de7848260208601610d80565b91505092915050565b600060208284031215610e0657610e05610cb1565b5b600082013567ffffffffffffffff811115610e2457610e23610cb6565b5b610e3084828501610dc2565b91505092915050565b600073ffffffffffffffffffffffffffffffffffffffff82169050919050565b6000610e6482610e39565b9050919050565b610e7481610e59565b8114610e7f57600080fd5b50565b600081359050610e9181610e6b565b92915050565b610ea081610c73565b8114610eab57600080fd5b50565b600081359050610ebd81610e97565b92915050565b60008060008060008060c08789031215610ee057610edf610cb1565b5b6000610eee89828a01610e82565b965050602087013567ffffffffffffffff811115610f0f57610f0e610cb6565b5b610f1b89828a01610dc2565b9550506040610f2c89828a01610eae565b945050606087013567ffffffffffffffff811115610f4d57610f4c610cb6565b5b610f5989828a01610dc2565b935050608087013567ffffffffffffffff811115610f7a57610f79610cb6565b5b610f8689828a01610dc2565b92505060a087013567ffffffffffffffff811115610fa757610fa6610cb6565b5b610fb389828a01610dc2565b9150509295509295509295565b600060208284031215610fd657610fd5610cb1565b5b6000610fe484828501610eae565b91505092915050565b610ff681610e59565b82525050565b600060408201905081810360008301526110168185610c18565b90506110256020830184610fed565b9392505050565b600080600080600060a0868803121561104857611047610cb1565b5b600086013567ffffffffffffffff81111561106657611065610cb6565b5b61107288828901610dc2565b955050602061108388828901610eae565b945050604086013567ffffffffffffffff8111156110a4576110a3610cb6565b5b6110b088828901610dc2565b935050606086013567ffffffffffffffff8111156110d1576110d0610cb6565b5b6110dd88828901610dc2565b925050608086013567ffffffffffffffff8111156110fe576110fd610cb6565b5b61110a88828901610dc2565b9150509295509295909350565b60006101008201905061112d600083018b610c7d565b818103602083015261113f818a610c18565b905061114e6040830189610c7d565b81810360608301526111608188610c18565b905081810360808301526111748187610c18565b905081810360a08301526111888186610c18565b905061119760c0830185610c7d565b6111a460e0830184610fed565b9998505050505050505050565b7f4e487b7100000000000000000000000000000000000000000000000000000000600052602260045260246000fd5b600060028204905060018216806111f857607f821691505b60208210810361120b5761120a6111b1565b5b50919050565b7f4e487b7100000000000000000000000000000000000000000000000000000000600052601160045260246000fd5b600061124b82610c73565b91507fffffffffffffffffffffffffffffffffffffffffffffffffffffffffffffffff820361127d5761127c611211565b5b60018201905091905056fea264697066735822122064f9f08d48588c14cd7dec84bbf49c0f6fa971efd447093a1da6f61bd0d4d19764736f6c634300080d0033",
  "immutableReferences": {},
  "source": "// SPDX-License-Identifier: GPL-3.0\r\npragma solidity ^0.8.4;\r\n\r\ncontract DStorage {\r\n  string public name = \"DStorage\";// Name\r\n  uint public userCount=0;  //UserCount\r\n  mapping(uint =>User) public UserList; // mapping of users\r\n  mapping(address =>File[]) sharedFiles;  // mapping of shared files\r\n  uint public fileCount=0;  // Number of files\r\n  mapping(uint=>File) public files;// Mapping fileId=>Struct \r\n\r\n // Struct Files\r\n struct File{\r\n     uint field;\r\n     string fileHash;\r\n     uint fileSize;\r\n     string fileType;\r\n     string fileName;\r\n     string fileDescription;\r\n     uint uploadTime;\r\n     address payable uploader; \r\n   }\r\n  // Struct\r\n  struct User{\r\n    string userName;\r\n    address payable owner;\r\n  }\r\n\r\n  // Event\r\n  event FileUploaded(\r\n     uint field,\r\n     string fileHash,\r\n     uint fileSize,\r\n     string fileType,\r\n     string fileName,\r\n     string fileDescription,\r\n     uint uploadTime,\r\n     address payable uploader \r\n  );\r\n\r\n  event UserAdded(\r\n     string userName,\r\n     address payable owner\r\n  );\r\n\r\n  event FileShared(\r\n    address payable receiver,\r\n    address payable sender\r\n  );\r\n\r\n   // Add a User\r\n    function addUser(string memory _userName) public {\r\n  \r\n    require(msg.sender!=address(0));  //check if the address is valid\r\n  \r\n    require(bytes(_userName).length>0);   // Check if the username is valid\r\n    userCount++;\r\n    UserList[userCount] =  User(_userName,payable(msg.sender)); //adding user to mapping \r\n    emit UserAdded(_userName,payable(msg.sender));\r\n  }\r\n \r\n //Share a file \r\n  function shareFile(address payable receiver ,string memory _fileHash, uint _fileSize, string memory _fileType, string memory _fileName, string memory _fileDescription) public {\r\n    require((bytes(_fileHash).length>0)); // Make sure the file hash exists\r\n\r\n    require((bytes(_fileType).length>0)); // Make sure file type exists\r\n    \r\n    require((bytes(_fileDescription).length>0)); // Make sure file description exists\r\n   \r\n    require((bytes(_fileName).length>0));  // Make sure file fileName exists\r\n    \r\n    require(msg.sender!=address(0)); // Make sure uploader address exists\r\n    \r\n    require(_fileSize>0); // Make sure file size is more than 0\r\n    \r\n    sharedFiles[receiver].push(File(fileCount,_fileHash,_fileSize,_fileType,_fileName,_fileDescription, block.timestamp ,payable(msg.sender)));\r\n  }\r\n\r\n// Upload File function\r\n  function uploadFile(string memory _fileHash, uint _fileSize, string memory _fileType, string memory _fileName, string memory _fileDescription) public {\r\n\r\n\r\n    require((bytes(_fileHash).length>0)); // Make sure the file hash exists\r\n\r\n    require((bytes(_fileType).length>0)); // Make sure file type exists\r\n    \r\n    require((bytes(_fileDescription).length>0)); // Make sure file description exists\r\n   \r\n    require((bytes(_fileName).length>0));  // Make sure file fileName exists\r\n    \r\n    require(msg.sender!=address(0)); // Make sure uploader address exists\r\n    \r\n    require(_fileSize>0); // Make sure file size is more than 0\r\n\r\n    fileCount++; // Increment file id\r\n\r\n    files[fileCount]=File(fileCount,_fileHash,_fileSize,_fileType,_fileName,_fileDescription, block.timestamp ,payable(msg.sender));  // Add File to the contract\r\n\r\n    emit FileUploaded(fileCount,_fileHash,_fileSize,_fileType,_fileName,_fileDescription, block.timestamp ,payable(msg.sender)); // Trigger an event\r\n  }\r\n  constructor()  {\r\n  }\r\n\r\n}",
  "sourcePath": "C:\\Users\\Varun Koranne\\Desktop\\Mini\\SafeNSecure\\src\\contracts\\DStorage.sol",
  "compiler": {
    "name": "solc",
    "version": "0.8.13+commit.abaa5c0e.Emscripten.clang"
  },
  "schemaVersion": "3.4.4",
  "updatedAt": "2022-04-27T15:00:23.242Z",
  "networkType": "ethereum",
  "devdoc": {
    "kind": "dev",
    "methods": {},
    "version": 1
  },
  "userdoc": {
    "kind": "user",
    "methods": {},
    "version": 1
  }
}