{
  "contractName": "DStorage",
  "abi": [
    {
      "inputs": [],
      "stateMutability": "nonpayable",
      "type": "constructor"
    },
    {
      "anonymous": false,
      "inputs": [
        {
          "indexed": false,
          "internalType": "address payable",
          "name": "receiver",
          "type": "address"
        },
        {
          "indexed": false,
          "internalType": "address payable",
          "name": "sender",
          "type": "address"
        }
      ],
      "name": "FileShared",
      "type": "event"
    },
    {
      "anonymous": false,
      "inputs": [
        {
          "indexed": false,
          "internalType": "uint256",
          "name": "field",
          "type": "uint256"
        },
        {
          "indexed": false,
          "internalType": "string",
          "name": "fileHash",
          "type": "string"
        },
        {
          "indexed": false,
          "internalType": "uint256",
          "name": "fileSize",
          "type": "uint256"
        },
        {
          "indexed": false,
          "internalType": "string",
          "name": "fileType",
          "type": "string"
        },
        {
          "indexed": false,
          "internalType": "string",
          "name": "fileName",
          "type": "string"
        },
        {
          "indexed": false,
          "internalType": "string",
          "name": "fileDescription",
          "type": "string"
        },
        {
          "indexed": false,
          "internalType": "uint256",
          "name": "uploadTime",
          "type": "uint256"
        },
        {
          "indexed": false,
          "internalType": "address payable",
          "name": "uploader",
          "type": "address"
        }
      ],
      "name": "FileUploaded",
      "type": "event"
    },
    {
      "anonymous": false,
      "inputs": [
        {
          "indexed": false,
          "internalType": "string",
          "name": "userName",
          "type": "string"
        },
        {
          "indexed": false,
          "internalType": "address payable",
          "name": "owner",
          "type": "address"
        }
      ],
      "name": "UserAdded",
      "type": "event"
    },
    {
      "inputs": [
        {
          "internalType": "uint256",
          "name": "",
          "type": "uint256"
        }
      ],
      "name": "UserList",
      "outputs": [
        {
          "internalType": "string",
          "name": "userName",
          "type": "string"
        },
        {
          "internalType": "address payable",
          "name": "owner",
          "type": "address"
        }
      ],
      "stateMutability": "view",
      "type": "function",
      "constant": true
    },
    {
      "inputs": [],
      "name": "fileCount",
      "outputs": [
        {
          "internalType": "uint256",
          "name": "",
          "type": "uint256"
        }
      ],
      "stateMutability": "view",
      "type": "function",
      "constant": true
    },
    {
      "inputs": [
        {
          "internalType": "uint256",
          "name": "",
          "type": "uint256"
        }
      ],
      "name": "files",
      "outputs": [
        {
          "internalType": "uint256",
          "name": "field",
          "type": "uint256"
        },
        {
          "internalType": "string",
          "name": "fileHash",
          "type": "string"
        },
        {
          "internalType": "uint256",
          "name": "fileSize",
          "type": "uint256"
        },
        {
          "internalType": "string",
          "name": "fileType",
          "type": "string"
        },
        {
          "internalType": "string",
          "name": "fileName",
          "type": "string"
        },
        {
          "internalType": "string",
          "name": "fileDescription",
          "type": "string"
        },
        {
          "internalType": "uint256",
          "name": "uploadTime",
          "type": "uint256"
        },
        {
          "internalType": "address payable",
          "name": "uploader",
          "type": "address"
        }
      ],
      "stateMutability": "view",
      "type": "function",
      "constant": true
    },
    {
      "inputs": [],
      "name": "name",
      "outputs": [
        {
          "internalType": "string",
          "name": "",
          "type": "string"
        }
      ],
      "stateMutability": "view",
      "type": "function",
      "constant": true
    },
    {
      "inputs": [
        {
          "internalType": "address",
          "name": "",
          "type": "address"
        },
        {
          "internalType": "uint256",
          "name": "",
          "type": "uint256"
        }
      ],
      "name": "sharedFiles",
      "outputs": [
        {
          "internalType": "uint256",
          "name": "field",
          "type": "uint256"
        },
        {
          "internalType": "string",
          "name": "fileHash",
          "type": "string"
        },
        {
          "internalType": "uint256",
          "name": "fileSize",
          "type": "uint256"
        },
        {
          "internalType": "string",
          "name": "fileType",
          "type": "string"
        },
        {
          "internalType": "string",
          "name": "fileName",
          "type": "string"
        },
        {
          "internalType": "string",
          "name": "fileDescription",
          "type": "string"
        },
        {
          "internalType": "uint256",
          "name": "uploadTime",
          "type": "uint256"
        },
        {
          "internalType": "address payable",
          "name": "uploader",
          "type": "address"
        }
      ],
      "stateMutability": "view",
      "type": "function",
      "constant": true
    },
    {
      "inputs": [
        {
          "internalType": "address",
          "name": "",
          "type": "address"
        }
      ],
      "name": "sharedFilesCount",
      "outputs": [
        {
          "internalType": "uint256",
          "name": "",
          "type": "uint256"
        }
      ],
      "stateMutability": "view",
      "type": "function",
      "constant": true
    },
    {
      "inputs": [],
      "name": "userCount",
      "outputs": [
        {
          "internalType": "uint256",
          "name": "",
          "type": "uint256"
        }
      ],
      "stateMutability": "view",
      "type": "function",
      "constant": true
    },
    {
      "inputs": [
        {
          "internalType": "string",
          "name": "_userName",
          "type": "string"
        }
      ],
      "name": "addUser",
      "outputs": [],
      "stateMutability": "nonpayable",
      "type": "function"
    },
    {
      "inputs": [
        {
          "internalType": "address payable",
          "name": "receiver",
          "type": "address"
        },
        {
          "internalType": "uint256",
          "name": "i",
          "type": "uint256"
        }
      ],
      "name": "getSharedFilesName",
      "outputs": [
        {
          "internalType": "string",
          "name": "_fileName",
          "type": "string"
        }
      ],
      "stateMutability": "view",
      "type": "function",
      "constant": true
    },
    {
      "inputs": [
        {
          "internalType": "address payable",
          "name": "receiver",
          "type": "address"
        },
        {
          "internalType": "uint256",
          "name": "i",
          "type": "uint256"
        }
      ],
      "name": "getSharedFilesHash",
      "outputs": [
        {
          "internalType": "string",
          "name": "_fileHash",
          "type": "string"
        }
      ],
      "stateMutability": "view",
      "type": "function",
      "constant": true
    },
    {
      "inputs": [
        {
          "internalType": "address payable",
          "name": "receiver",
          "type": "address"
        },
        {
          "internalType": "uint256",
          "name": "i",
          "type": "uint256"
        }
      ],
      "name": "getSharedFilesSize",
      "outputs": [
        {
          "internalType": "uint256",
          "name": "_fileSize",
          "type": "uint256"
        }
      ],
      "stateMutability": "view",
      "type": "function",
      "constant": true
    },
    {
      "inputs": [
        {
          "internalType": "address payable",
          "name": "receiver",
          "type": "address"
        },
        {
          "internalType": "uint256",
          "name": "i",
          "type": "uint256"
        }
      ],
      "name": "getSharedFilesType",
      "outputs": [
        {
          "internalType": "string",
          "name": "_fileType",
          "type": "string"
        }
      ],
      "stateMutability": "view",
      "type": "function",
      "constant": true
    },
    {
      "inputs": [
        {
          "internalType": "address payable",
          "name": "receiver",
          "type": "address"
        },
        {
          "internalType": "uint256",
          "name": "i",
          "type": "uint256"
        }
      ],
      "name": "getSharedFilesDescription",
      "outputs": [
        {
          "internalType": "string",
          "name": "_fileDescription",
          "type": "string"
        }
      ],
      "stateMutability": "view",
      "type": "function",
      "constant": true
    },
    {
      "inputs": [
        {
          "internalType": "address payable",
          "name": "receiver",
          "type": "address"
        },
        {
          "internalType": "uint256",
          "name": "i",
          "type": "uint256"
        }
      ],
      "name": "getSharedFileUploadTime",
      "outputs": [
        {
          "internalType": "uint256",
          "name": "_fileUploadTime",
          "type": "uint256"
        }
      ],
      "stateMutability": "view",
      "type": "function",
      "constant": true
    },
    {
      "inputs": [
        {
          "internalType": "address payable",
          "name": "receiver",
          "type": "address"
        },
        {
          "internalType": "uint256",
          "name": "i",
          "type": "uint256"
        }
      ],
      "name": "getSharedFilesUploader",
      "outputs": [
        {
          "internalType": "address",
          "name": "_fileUploaderName",
          "type": "address"
        }
      ],
      "stateMutability": "view",
      "type": "function",
      "constant": true
    },
    {
      "inputs": [
        {
          "internalType": "address payable",
          "name": "receiver",
          "type": "address"
        },
        {
          "internalType": "string",
          "name": "_fileHash",
          "type": "string"
        },
        {
          "internalType": "uint256",
          "name": "_fileSize",
          "type": "uint256"
        },
        {
          "internalType": "string",
          "name": "_fileType",
          "type": "string"
        },
        {
          "internalType": "string",
          "name": "_fileName",
          "type": "string"
        },
        {
          "internalType": "string",
          "name": "_fileDescription",
          "type": "string"
        }
      ],
      "name": "shareFile",
      "outputs": [],
      "stateMutability": "nonpayable",
      "type": "function"
    },
    {
      "inputs": [
        {
          "internalType": "string",
          "name": "_fileHash",
          "type": "string"
        },
        {
          "internalType": "uint256",
          "name": "_fileSize",
          "type": "uint256"
        },
        {
          "internalType": "string",
          "name": "_fileType",
          "type": "string"
        },
        {
          "internalType": "string",
          "name": "_fileName",
          "type": "string"
        },
        {
          "internalType": "string",
          "name": "_fileDescription",
          "type": "string"
        }
      ],
      "name": "uploadFile",
      "outputs": [],
      "stateMutability": "nonpayable",
      "type": "function"
    }
  ],
  "bytecode": "0x60806040526040518060400160405280600881526020017f4453746f72616765000000000000000000000000000000000000000000000000815250600090805190602001906200005192919062000070565b50600060015560006005553480156200006957600080fd5b5062000184565b8280546200007e906200014f565b90600052602060002090601f016020900481019282620000a25760008555620000ee565b82601f10620000bd57805160ff1916838001178555620000ee565b82800160010185558215620000ee579182015b82811115620000ed578251825591602001919060010190620000d0565b5b509050620000fd919062000101565b5090565b5b808211156200011c57600081600090555060010162000102565b5090565b7f4e487b7100000000000000000000000000000000000000000000000000000000600052602260045260246000fd5b600060028204905060018216806200016857607f821691505b6020821081036200017e576200017d62000120565b5b50919050565b611e8980620001946000396000f3fe608060405234801561001057600080fd5b506004361061010b5760003560e01c806356041432116100a2578063babe165511610071578063babe1655146102f9578063e82d9d331461032a578063f4c714b414610346578063f90e0a501461037d578063ff642ee3146103ad5761010b565b8063560414321461023257806379ad271f14610269578063849c563b14610299578063ba572639146102c95761010b565b806330ee3fb8116100de57806330ee3fb81461019857806343953519146101c857806347635c57146101e65780634b72569a146102025761010b565b806306fdde031461011057806307973ccf1461012e57806318b8275a1461014c5780631e57e51d14610168575b600080fd5b6101186103dd565b60405161012591906116d8565b60405180910390f35b61013661046b565b6040516101439190611713565b60405180910390f35b61016660048036038101906101619190611877565b610471565b005b610182600480360381019061017d919061194a565b6105b3565b60405161018f9190611713565b60405180910390f35b6101b260048036038101906101ad919061194a565b610620565b6040516101bf91906119ab565b60405180910390f35b6101d06106ad565b6040516101dd9190611713565b60405180910390f35b61020060048036038101906101fb91906119c6565b6106b3565b005b61021c60048036038101906102179190611aef565b610923565b6040516102299190611713565b60405180910390f35b61024c60048036038101906102479190611b1c565b61093b565b604051610260989796959493929190611b6b565b60405180910390f35b610283600480360381019061027e919061194a565b610be0565b6040516102909190611713565b60405180910390f35b6102b360048036038101906102ae919061194a565b610c4d565b6040516102c091906116d8565b60405180910390f35b6102e360048036038101906102de919061194a565b610d42565b6040516102f091906116d8565b60405180910390f35b610313600480360381019061030e9190611c05565b610e37565b604051610321929190611c32565b60405180910390f35b610344600480360381019061033f9190611c62565b610f03565b005b610360600480360381019061035b9190611c05565b61112a565b604051610374989796959493929190611b6b565b60405180910390f35b6103976004803603810190610392919061194a565b6113b2565b6040516103a491906116d8565b60405180910390f35b6103c760048036038101906103c2919061194a565b6114a7565b6040516103d491906116d8565b60405180910390f35b600080546103ea90611d7c565b80601f016020809104026020016040519081016040528092919081815260200182805461041690611d7c565b80156104635780601f1061043857610100808354040283529160200191610463565b820191906000526020600020905b81548152906001019060200180831161044657829003601f168201915b505050505081565b60015481565b600073ffffffffffffffffffffffffffffffffffffffff163373ffffffffffffffffffffffffffffffffffffffff16036104aa57600080fd5b60008151116104b857600080fd5b600160008154809291906104cb90611ddc565b919050555060405180604001604052808281526020013373ffffffffffffffffffffffffffffffffffffffff16815250600260006001548152602001908152602001600020600082015181600001908051906020019061052c92919061159c565b5060208201518160010160006101000a81548173ffffffffffffffffffffffffffffffffffffffff021916908373ffffffffffffffffffffffffffffffffffffffff1602179055509050507fa9f30653d8449c84b5b92a43e719ff26da48571661b3093c672cec7f62df636181336040516105a8929190611c32565b60405180910390a150565b6000600360008473ffffffffffffffffffffffffffffffffffffffff1673ffffffffffffffffffffffffffffffffffffffff168152602001908152602001600020828154811061060657610605611e24565b5b906000526020600020906008020160020154905092915050565b6000600360008473ffffffffffffffffffffffffffffffffffffffff1673ffffffffffffffffffffffffffffffffffffffff168152602001908152602001600020828154811061067357610672611e24565b5b906000526020600020906008020160070160009054906101000a900473ffffffffffffffffffffffffffffffffffffffff16905092915050565b60055481565b60008551116106c157600080fd5b60008351116106cf57600080fd5b60008151116106dd57600080fd5b60008251116106eb57600080fd5b600073ffffffffffffffffffffffffffffffffffffffff163373ffffffffffffffffffffffffffffffffffffffff160361072457600080fd5b6000841161073157600080fd5b600460008773ffffffffffffffffffffffffffffffffffffffff1673ffffffffffffffffffffffffffffffffffffffff168152602001908152602001600020600081548092919061078190611ddc565b9190505550600360008773ffffffffffffffffffffffffffffffffffffffff1673ffffffffffffffffffffffffffffffffffffffff16815260200190815260200160002060405180610100016040528060055481526020018781526020018681526020018581526020018481526020018381526020014281526020013373ffffffffffffffffffffffffffffffffffffffff16815250908060018154018082558091505060019003906000526020600020906008020160009091909190915060008201518160000155602082015181600101908051906020019061086692919061159c565b5060408201518160020155606082015181600301908051906020019061088d92919061159c565b5060808201518160040190805190602001906108aa92919061159c565b5060a08201518160050190805190602001906108c792919061159c565b5060c0820151816006015560e08201518160070160006101000a81548173ffffffffffffffffffffffffffffffffffffffff021916908373ffffffffffffffffffffffffffffffffffffffff1602179055505050505050505050565b60046020528060005260406000206000915090505481565b6003602052816000526040600020818154811061095757600080fd5b90600052602060002090600802016000915091505080600001549080600101805461098190611d7c565b80601f01602080910402602001604051908101604052809291908181526020018280546109ad90611d7c565b80156109fa5780601f106109cf576101008083540402835291602001916109fa565b820191906000526020600020905b8154815290600101906020018083116109dd57829003601f168201915b505050505090806002015490806003018054610a1590611d7c565b80601f0160208091040260200160405190810160405280929190818152602001828054610a4190611d7c565b8015610a8e5780601f10610a6357610100808354040283529160200191610a8e565b820191906000526020600020905b815481529060010190602001808311610a7157829003601f168201915b505050505090806004018054610aa390611d7c565b80601f0160208091040260200160405190810160405280929190818152602001828054610acf90611d7c565b8015610b1c5780601f10610af157610100808354040283529160200191610b1c565b820191906000526020600020905b815481529060010190602001808311610aff57829003601f168201915b505050505090806005018054610b3190611d7c565b80601f0160208091040260200160405190810160405280929190818152602001828054610b5d90611d7c565b8015610baa5780601f10610b7f57610100808354040283529160200191610baa565b820191906000526020600020905b815481529060010190602001808311610b8d57829003601f168201915b5050505050908060060154908060070160009054906101000a900473ffffffffffffffffffffffffffffffffffffffff16905088565b6000600360008473ffffffffffffffffffffffffffffffffffffffff1673ffffffffffffffffffffffffffffffffffffffff1681526020019081526020016000208281548110610c3357610c32611e24565b5b906000526020600020906008020160060154905092915050565b6060600360008473ffffffffffffffffffffffffffffffffffffffff1673ffffffffffffffffffffffffffffffffffffffff1681526020019081526020016000208281548110610ca057610c9f611e24565b5b90600052602060002090600802016004018054610cbc90611d7c565b80601f0160208091040260200160405190810160405280929190818152602001828054610ce890611d7c565b8015610d355780601f10610d0a57610100808354040283529160200191610d35565b820191906000526020600020905b815481529060010190602001808311610d1857829003601f168201915b5050505050905092915050565b6060600360008473ffffffffffffffffffffffffffffffffffffffff1673ffffffffffffffffffffffffffffffffffffffff1681526020019081526020016000208281548110610d9557610d94611e24565b5b90600052602060002090600802016005018054610db190611d7c565b80601f0160208091040260200160405190810160405280929190818152602001828054610ddd90611d7c565b8015610e2a5780601f10610dff57610100808354040283529160200191610e2a565b820191906000526020600020905b815481529060010190602001808311610e0d57829003601f168201915b5050505050905092915050565b6002602052806000526040600020600091509050806000018054610e5a90611d7c565b80601f0160208091040260200160405190810160405280929190818152602001828054610e8690611d7c565b8015610ed35780601f10610ea857610100808354040283529160200191610ed3565b820191906000526020600020905b815481529060010190602001808311610eb657829003601f168201915b5050505050908060010160009054906101000a900473ffffffffffffffffffffffffffffffffffffffff16905082565b6000855111610f1157600080fd5b6000835111610f1f57600080fd5b6000815111610f2d57600080fd5b6000825111610f3b57600080fd5b600073ffffffffffffffffffffffffffffffffffffffff163373ffffffffffffffffffffffffffffffffffffffff1603610f7457600080fd5b60008411610f8157600080fd5b60056000815480929190610f9490611ddc565b919050555060405180610100016040528060055481526020018681526020018581526020018481526020018381526020018281526020014281526020013373ffffffffffffffffffffffffffffffffffffffff1681525060066000600554815260200190815260200160002060008201518160000155602082015181600101908051906020019061102692919061159c565b5060408201518160020155606082015181600301908051906020019061104d92919061159c565b50608082015181600401908051906020019061106a92919061159c565b5060a082015181600501908051906020019061108792919061159c565b5060c0820151816006015560e08201518160070160006101000a81548173ffffffffffffffffffffffffffffffffffffffff021916908373ffffffffffffffffffffffffffffffffffffffff1602179055509050507f6e95bbaa37a5fdec42a312e049dea2fe6160ebe659214d3409b4f91f164c2f526005548686868686423360405161111b989796959493929190611b6b565b60405180910390a15050505050565b600660205280600052604060002060009150905080600001549080600101805461115390611d7c565b80601f016020809104026020016040519081016040528092919081815260200182805461117f90611d7c565b80156111cc5780601f106111a1576101008083540402835291602001916111cc565b820191906000526020600020905b8154815290600101906020018083116111af57829003601f168201915b5050505050908060020154908060030180546111e790611d7c565b80601f016020809104026020016040519081016040528092919081815260200182805461121390611d7c565b80156112605780601f1061123557610100808354040283529160200191611260565b820191906000526020600020905b81548152906001019060200180831161124357829003601f168201915b50505050509080600401805461127590611d7c565b80601f01602080910402602001604051908101604052809291908181526020018280546112a190611d7c565b80156112ee5780601f106112c3576101008083540402835291602001916112ee565b820191906000526020600020905b8154815290600101906020018083116112d157829003601f168201915b50505050509080600501805461130390611d7c565b80601f016020809104026020016040519081016040528092919081815260200182805461132f90611d7c565b801561137c5780601f106113515761010080835404028352916020019161137c565b820191906000526020600020905b81548152906001019060200180831161135f57829003601f168201915b5050505050908060060154908060070160009054906101000a900473ffffffffffffffffffffffffffffffffffffffff16905088565b6060600360008473ffffffffffffffffffffffffffffffffffffffff1673ffffffffffffffffffffffffffffffffffffffff168152602001908152602001600020828154811061140557611404611e24565b5b9060005260206000209060080201600101805461142190611d7c565b80601f016020809104026020016040519081016040528092919081815260200182805461144d90611d7c565b801561149a5780601f1061146f5761010080835404028352916020019161149a565b820191906000526020600020905b81548152906001019060200180831161147d57829003601f168201915b5050505050905092915050565b6060600360008473ffffffffffffffffffffffffffffffffffffffff1673ffffffffffffffffffffffffffffffffffffffff16815260200190815260200160002082815481106114fa576114f9611e24565b5b9060005260206000209060080201600301805461151690611d7c565b80601f016020809104026020016040519081016040528092919081815260200182805461154290611d7c565b801561158f5780601f106115645761010080835404028352916020019161158f565b820191906000526020600020905b81548152906001019060200180831161157257829003601f168201915b5050505050905092915050565b8280546115a890611d7c565b90600052602060002090601f0160209004810192826115ca5760008555611611565b82601f106115e357805160ff1916838001178555611611565b82800160010185558215611611579182015b828111156116105782518255916020019190600101906115f5565b5b50905061161e9190611622565b5090565b5b8082111561163b576000816000905550600101611623565b5090565b600081519050919050565b600082825260208201905092915050565b60005b8381101561167957808201518184015260208101905061165e565b83811115611688576000848401525b50505050565b6000601f19601f8301169050919050565b60006116aa8261163f565b6116b4818561164a565b93506116c481856020860161165b565b6116cd8161168e565b840191505092915050565b600060208201905081810360008301526116f2818461169f565b905092915050565b6000819050919050565b61170d816116fa565b82525050565b60006020820190506117286000830184611704565b92915050565b6000604051905090565b600080fd5b600080fd5b600080fd5b600080fd5b7f4e487b7100000000000000000000000000000000000000000000000000000000600052604160045260246000fd5b6117848261168e565b810181811067ffffffffffffffff821117156117a3576117a261174c565b5b80604052505050565b60006117b661172e565b90506117c2828261177b565b919050565b600067ffffffffffffffff8211156117e2576117e161174c565b5b6117eb8261168e565b9050602081019050919050565b82818337600083830152505050565b600061181a611815846117c7565b6117ac565b90508281526020810184848401111561183657611835611747565b5b6118418482856117f8565b509392505050565b600082601f83011261185e5761185d611742565b5b813561186e848260208601611807565b91505092915050565b60006020828403121561188d5761188c611738565b5b600082013567ffffffffffffffff8111156118ab576118aa61173d565b5b6118b784828501611849565b91505092915050565b600073ffffffffffffffffffffffffffffffffffffffff82169050919050565b60006118eb826118c0565b9050919050565b6118fb816118e0565b811461190657600080fd5b50565b600081359050611918816118f2565b92915050565b611927816116fa565b811461193257600080fd5b50565b6000813590506119448161191e565b92915050565b6000806040838503121561196157611960611738565b5b600061196f85828601611909565b925050602061198085828601611935565b9150509250929050565b6000611995826118c0565b9050919050565b6119a58161198a565b82525050565b60006020820190506119c0600083018461199c565b92915050565b60008060008060008060c087890312156119e3576119e2611738565b5b60006119f189828a01611909565b965050602087013567ffffffffffffffff811115611a1257611a1161173d565b5b611a1e89828a01611849565b9550506040611a2f89828a01611935565b945050606087013567ffffffffffffffff811115611a5057611a4f61173d565b5b611a5c89828a01611849565b935050608087013567ffffffffffffffff811115611a7d57611a7c61173d565b5b611a8989828a01611849565b92505060a087013567ffffffffffffffff811115611aaa57611aa961173d565b5b611ab689828a01611849565b9150509295509295509295565b611acc8161198a565b8114611ad757600080fd5b50565b600081359050611ae981611ac3565b92915050565b600060208284031215611b0557611b04611738565b5b6000611b1384828501611ada565b91505092915050565b60008060408385031215611b3357611b32611738565b5b6000611b4185828601611ada565b9250506020611b5285828601611935565b9150509250929050565b611b65816118e0565b82525050565b600061010082019050611b81600083018b611704565b8181036020830152611b93818a61169f565b9050611ba26040830189611704565b8181036060830152611bb4818861169f565b90508181036080830152611bc8818761169f565b905081810360a0830152611bdc818661169f565b9050611beb60c0830185611704565b611bf860e0830184611b5c565b9998505050505050505050565b600060208284031215611c1b57611c1a611738565b5b6000611c2984828501611935565b91505092915050565b60006040820190508181036000830152611c4c818561169f565b9050611c5b6020830184611b5c565b9392505050565b600080600080600060a08688031215611c7e57611c7d611738565b5b600086013567ffffffffffffffff811115611c9c57611c9b61173d565b5b611ca888828901611849565b9550506020611cb988828901611935565b945050604086013567ffffffffffffffff811115611cda57611cd961173d565b5b611ce688828901611849565b935050606086013567ffffffffffffffff811115611d0757611d0661173d565b5b611d1388828901611849565b925050608086013567ffffffffffffffff811115611d3457611d3361173d565b5b611d4088828901611849565b9150509295509295909350565b7f4e487b7100000000000000000000000000000000000000000000000000000000600052602260045260246000fd5b60006002820490506001821680611d9457607f821691505b602082108103611da757611da6611d4d565b5b50919050565b7f4e487b7100000000000000000000000000000000000000000000000000000000600052601160045260246000fd5b6000611de7826116fa565b91507fffffffffffffffffffffffffffffffffffffffffffffffffffffffffffffffff8203611e1957611e18611dad565b5b600182019050919050565b7f4e487b7100000000000000000000000000000000000000000000000000000000600052603260045260246000fdfea264697066735822122024cafa7801b5997d09ed3619009fe895737bd6c320366f7f3299321275892ec064736f6c634300080d0033",
  "immutableReferences": {},
  "source": "// SPDX-License-Identifier: GPL-3.0\r\npragma solidity ^0.8.4;\r\n\r\ncontract DStorage {\r\n  string public name = \"DStorage\";// Name\r\n  uint public userCount=0;  //UserCount\r\n  mapping(uint =>User) public UserList; // mapping of users\r\n  mapping(address =>File[]) public sharedFiles;  // mapping of shared files\r\n  mapping(address=>uint) public sharedFilesCount;\r\n  uint public fileCount=0;  // Number of files\r\n  mapping(uint=>File) public files;// Mapping fileId=>Struct \r\n\r\n // Struct Files\r\n struct File{\r\n     uint field;\r\n     string fileHash;\r\n     uint fileSize;\r\n     string fileType;\r\n     string fileName;\r\n     string fileDescription;\r\n     uint uploadTime;\r\n     address payable uploader; \r\n   }\r\n  // Struct\r\n  struct User{\r\n    string userName;\r\n    address payable owner;\r\n  }\r\n\r\n  // Event\r\n  event FileUploaded(\r\n     uint field,\r\n     string fileHash,\r\n     uint fileSize,\r\n     string fileType,\r\n     string fileName,\r\n     string fileDescription,\r\n     uint uploadTime,\r\n     address payable uploader \r\n  );\r\n\r\n  event UserAdded(\r\n     string userName,\r\n     address payable owner\r\n  );\r\n\r\n  event FileShared(\r\n    address payable receiver,\r\n    address payable sender\r\n  );\r\n\r\n   // Add a User\r\n    function addUser(string memory _userName) public {\r\n  \r\n    require(msg.sender!=address(0));  //check if the address is valid\r\n  \r\n    require(bytes(_userName).length>0);   // Check if the username is valid\r\n    userCount++;\r\n    UserList[userCount] =  User(_userName,payable(msg.sender)); //adding user to mapping \r\n    emit UserAdded(_userName,payable(msg.sender));\r\n  }\r\n\r\n  function getSharedFilesName(address payable receiver,uint i) public view returns(string memory _fileName ) {\r\n    return(sharedFiles[receiver][i].fileName);\r\n  }\r\n  function getSharedFilesHash(address payable receiver,uint i) public view returns(string memory _fileHash ) {\r\n    return(sharedFiles[receiver][i].fileHash);\r\n  }\r\n  function getSharedFilesSize(address payable receiver,uint i) public view returns(uint _fileSize) {\r\n    return(sharedFiles[receiver][i].fileSize);\r\n  }\r\n  function getSharedFilesType(address payable receiver,uint i) public view returns(string memory _fileType) {\r\n    return(sharedFiles[receiver][i].fileType);\r\n  }\r\n  function getSharedFilesDescription(address payable receiver,uint i) public view returns(string memory _fileDescription ) {\r\n    return(sharedFiles[receiver][i].fileDescription);\r\n  }\r\n  function getSharedFileUploadTime(address payable receiver,uint i) public view returns(uint _fileUploadTime ) {\r\n    return(sharedFiles[receiver][i].uploadTime);\r\n  }  \r\n  function getSharedFilesUploader(address payable receiver,uint i) public view returns(address _fileUploaderName) {\r\n    return(sharedFiles[receiver][i].uploader);\r\n  }\r\n\r\n  //Get Shared Files\r\n  \r\n //Share a file \r\n  function shareFile(address payable receiver ,string memory _fileHash, uint _fileSize, string memory _fileType, string memory _fileName, string memory _fileDescription) public {\r\n    require((bytes(_fileHash).length>0)); // Make sure the file hash exists\r\n\r\n    require((bytes(_fileType).length>0)); // Make sure file type exists\r\n    \r\n    require((bytes(_fileDescription).length>0)); // Make sure file description exists\r\n   \r\n    require((bytes(_fileName).length>0));  // Make sure file fileName exists\r\n    \r\n    require(msg.sender!=address(0)); // Make sure uploader address exists\r\n    \r\n    require(_fileSize>0); // Make sure file size is more than 0\r\n\r\n     //Increasing shared files count\r\n     sharedFilesCount[receiver]++;\r\n\r\n     sharedFiles[receiver].push(File(fileCount,_fileHash,_fileSize,_fileType,_fileName,_fileDescription, block.timestamp ,payable(msg.sender)));\r\n  }\r\n\r\n// Upload File function\r\n  function uploadFile(string memory _fileHash, uint _fileSize, string memory _fileType, string memory _fileName, string memory _fileDescription) public {\r\n\r\n\r\n    require((bytes(_fileHash).length>0)); // Make sure the file hash exists\r\n\r\n    require((bytes(_fileType).length>0)); // Make sure file type exists\r\n    \r\n    require((bytes(_fileDescription).length>0)); // Make sure file description exists\r\n   \r\n    require((bytes(_fileName).length>0));  // Make sure file fileName exists\r\n    \r\n    require(msg.sender!=address(0)); // Make sure uploader address exists\r\n    \r\n    require(_fileSize>0); // Make sure file size is more than 0\r\n\r\n    fileCount++; // Increment file id\r\n\r\n    files[fileCount]=File(fileCount,_fileHash,_fileSize,_fileType,_fileName,_fileDescription, block.timestamp ,payable(msg.sender));  // Add File to the contract\r\n\r\n    emit FileUploaded(fileCount,_fileHash,_fileSize,_fileType,_fileName,_fileDescription, block.timestamp ,payable(msg.sender)); // Trigger an event\r\n  }\r\n  constructor()  {\r\n  }\r\n\r\n}",
  "sourcePath": "C:\\Users\\Varun Koranne\\Desktop\\Mini\\SafeNSecure\\src\\contracts\\DStorage.sol",
  "compiler": {
    "name": "solc",
    "version": "0.8.13+commit.abaa5c0e.Emscripten.clang"
  },
  "schemaVersion": "3.4.4",
  "updatedAt": "2022-04-29T11:22:26.851Z",
  "networkType": "ethereum",
  "devdoc": {
    "kind": "dev",
    "methods": {},
    "version": 1
  },
  "userdoc": {
    "kind": "user",
    "methods": {},
    "version": 1
  }
}